:020000040000FA
:100000000002002045010000490100004B010000F2
:100010004D0100004F0100005101000000000000F0
:10002000000000000000000000000000530100007C
:1000300055010000000000005701000059010000B8
:100040005B0100005B0100005B0100005B01000040
:100050005B0100005B0100005B0100005B01000030
:100060005B0100005B0100005B0100005B01000020
:100070005B0100005B0100005B0100005B01000010
:100080005B0100005B0100005B0100005B01000000
:100090005B0100005B0100005B0100005B010000F0
:1000A0005B0100005B0100005B0100005B010000E0
:1000B0005B0100005B0100005B0100005B010000D0
:1000C0005B0100005B0100005B0100005B010000C0
:1000D0005B0100005B0100005B0100005B010000B0
:1000E0005B010000000000000000000000000000B4
:1000F0000000000000000000000000000000000000
:1001000000000000000000000000000000000000EF
:1001100000000000000000000000000000000000DF
:1001200000000000000000000000000000000000CF
:1001300000000000000000000000000000000000BF
:100140000000000008480047FEE7FEE7FEE7FEE784
:10015000FEE7FEE7FEE7FEE7FEE7FEE703480449A9
:10016000024A044B7047000081010000000000209B
:100170000002002000000020704770477047000018
:100180004FF000554FF000014FF0010205F8011B40
:1001900005F8012B4FF0080002EB010311461A4647
:0801A00005F8013B0138F7D11D
:0400000500000145B1
:00000001FF
