:020000040000FA
:1000000060020020C9010000D1010000D3010000FE
:10001000D5010000D7010000D90100000000000058
:10002000000000000000000000000000DB010000F4
:10003000DD01000000000000DF010000E101000020
:10004000E3010000E3010000E3010000E301000020
:10005000E3010000E3010000E3010000E301000010
:10006000E3010000E3010000E3010000E301000000
:10007000E3010000E3010000E3010000E3010000F0
:10008000E3010000E3010000E3010000E3010000E0
:10009000E3010000E3010000E3010000E3010000D0
:1000A000E3010000E3010000E3010000E3010000C0
:1000B000E3010000E3010000E3010000E3010000B0
:1000C000E3010000E3010000E30100008102000001
:1000D000E3010000E3010000E3010000E301000090
:1000E000E30100000000000000000000000000002C
:1000F0000000000000000000000000000000000000
:1001000000000000000000000000000000000000EF
:1001100000000000000000000000000000000000DF
:1001200000000000000000000000000000000000CF
:1001300000000000000000000000000000000000BF
:100140000000000000F002F800F02EF80AA090E88D
:10015000000C82448344AAF10107DA4501D100F082
:1001600023F8AFF2090EBAE80F0013F0010F18BF21
:10017000FB1A43F0010318478002000090020000C0
:100180000023002400250026103A28BF78C1FBD8A0
:10019000520728BF30C148BF0B6070471FB500F041
:1001A00025F91FBD10B510BD00F02FF81146FFF75F
:1001B000F5FF00F0CBF800F04DF803B4FFF7F2FFC5
:1001C00003BC00F055F80000094880470948004783
:1001D000FEE7FEE7FEE7FEE7FEE7FEE7FEE7FEE7F7
:1001E000FEE7FEE704480549034A054B7047000057
:1001F000C9020000450100006000002060020020EC
:1002000060000020704770477047754600F02CF87A
:10021000AE4605006946534620F00700854618B0F3
:1002200020B5FFF7DFFFBDE820404FF000064FF09C
:1002300000074FF000084FF0000B21F00701AC461B
:10024000ACE8C009ACE8C009ACE8C009ACE8C0093A
:100250008D46704710B50446AFF300802046BDE8D8
:100260001040FFF7AABF00000048704700000020C0
:1002700001491820ABBEFEE72600020070470000CF
:1002800000B51048007800F0020098B10D48193808
:10029000007840F007000B49193908704FF4FA70E4
:1002A00000F048F807481938007820F007000549A1
:1002B000193908700348007820F0020001490870DD
:1002C00000BD00001C4C00401548006840F4700060
:1002D000134908604FF4B540124908808020124944
:1002E000486146F65A10114908604FF48030091DE4
:1002F0000860081D006820F00710C01C091D086078
:1003000000200A4908600A48006920F030000849C6
:1003100008610846406920F03000486170470000DD
:1003200088ED00E00C480040003004E0000401408B
:1003300000100140002106E040F2EE2200E0521ED3
:10034000002AFCDC491C8142F6DB70474FF4B540C3
:10035000244908802448007840F0070022490870AA
:10036000881E007840F00700891E0870481C00783D
:1003700020F00200491C0870881C007840F0020040
:10038000891C0870081F007840F00200091F0870DF
:1003900015481530007840F00200134915310870F7
:1003A000881E007820F00200891E0870081D007861
:1003B00020F00200091D0870232000280DDB00BF7B
:1003C00000BF00F01F02012191404209920002F19A
:1003D000E022C2F8001100BF00BF00BF62B600BF3C
:1003E000FEE700000C480040054C00404FF0407014
:1003F000E1EE100A70470000080400000000002031
:08040000600200008001000011
:0400000500000145B1
:00000001FF
