:020000040000FA
:1000000060020020C9010000D1010000D3010000FE
:10001000D5010000D7010000D90100000000000058
:10002000000000000000000000000000DB010000F4
:10003000DD01000000000000DF010000E101000020
:10004000E3010000E3010000E3010000E301000020
:10005000E3010000E3010000E3010000E301000010
:10006000E3010000E3010000E3010000E301000000
:10007000E3010000E3010000E3010000E3010000F0
:10008000E3010000E3010000E3010000E3010000E0
:10009000E3010000E3010000E3010000E3010000D0
:1000A000E3010000E3010000E3010000E3010000C0
:1000B000E3010000E3010000E3010000E3010000B0
:1000C000E3010000E3010000E30100008102000001
:1000D000E3010000E3010000E3010000E301000090
:1000E000E30100000000000000000000000000002C
:1000F0000000000000000000000000000000000000
:1001000000000000000000000000000000000000EF
:1001100000000000000000000000000000000000DF
:1001200000000000000000000000000000000000CF
:1001300000000000000000000000000000000000BF
:100140000000000000F002F800F02EF80AA090E88D
:10015000000C82448344AAF10107DA4501D100F082
:1001600023F8AFF2090EBAE80F0013F0010F18BF21
:10017000FB1A43F001031847180200002802000090
:100180000023002400250026103A28BF78C1FBD8A0
:10019000520728BF30C148BF0B6070471FB500F041
:1001A000EAF81FBD10B510BD00F02FF81146FFF79B
:1001B000F5FF00F0AFF800F04DF803B4FFF7F2FFE1
:1001C00003BC00F055F80000094880470948004783
:1001D000FEE7FEE7FEE7FEE7FEE7FEE7FEE7FEE7F7
:1001E000FEE7FEE704480549034A054B7047000057
:1001F000A90200004501000060000020600200200C
:1002000060000020704770477047754600F02CF87A
:10021000AE4605006946534620F00700854618B0F3
:1002200020B5FFF7DFFFBDE820404FF000064FF09C
:1002300000074FF000084FF0000BAC46ACE8C009D7
:10024000ACE8C009ACE8C009ACE8C00921F007017E
:100250008D46704710B50446AFF300802046BDE8D8
:100260001040FFF7AABF00000048704700000020C0
:1002700001491820ABBEFEE72600020070470000CF
:1002800044F60340C4F20000417EC90658BF7047DF
:10029000017841F004010170017881F004010170DE
:1002A00000214176704700004EF68850CEF20000E3
:1002B000016841F47001016044F60C00C4F20000D2
:1002C0004FF4B541018043F21400CEF204008021C6
:1002D000016040F20040C4F2010046F65A1101608C
:1002E0004FF480314160816821F007110331816052
:1002F00000210160D0F8101C21F03001C0F8101C62
:1003000041F21400C4F20100016821F030010160E3
:100310007047000044F60C00C4F200004FF4B541F1
:1003200072B6018044F60240C4F20000C17841F088
:100330000401C170817801F0EF018170017941F011
:1003400010010171017841F010010170817D01F00F
:10035000EF018175817E01F0EF018176017E41F030
:10036000100101764EF20410CEF200000821016067
:1003700062B600BFFEE7F1EE100A4FF6FF71C0F261
:10038000C03120EA010040F04070E1EE100A7047F1
:10039000A0030000000000206002000080010000B7
:04000005000001C92D
:00000001FF
